:100000000A128A11EC2F00308A000408840A820741
:100010000034533431343A342034533432343A34A3
:0E0020002034533433343A3400342E34003458
:1000D600F0007008831203139300080083160313BD
:1000E600141C76287728712808000A128A117120B4
:1000F6000A128A11831203131308080000300A1229
:100106008A119D200A128A1101300A128A119D2035
:100116000A128A110800F1008312031307147108EA
:10012600880087140D30F000F00B97288312031314
:1001360087100800F2008312031307107208880064
:1001460087140630F1003030F000F00BA828F10BD0
:10015600A82800008312031387100800F3008316F3
:1001660003138712731DB828B928BD287208940096
:100176008715C128700872049400871173087104EA
:100186008312031394000800F4007403031DCC28A3
:10019600CD28D72873087F3EF50075080A128A1104
:1001A6009D200A128A11E62802307406031DDC28F7
:1001B600DD28E6287308BF3EF50075080A128A1185
:1001C6009D200A128A110800F400F301FB28730827
:1001D600740784000A128A1103200A128A110A126D
:1001E6008A118E200A128A110130F2007208F30772
:1001F6007308740784000A128A1103200A128A11EE
:10020600003A031D07290829EA2808008316031760
:10021600880189018316031386018312031386015D
:100226008316031385018312031385018B178B1520
:100236000B10C030831603139600C030950081134F
:10024600880183120313880183160313870183121F
:10025600031307150717F001F101F20120300A1206
:100266008A11B1200A128A11080070087104031954
:100276003D293E296D29F501F50A4C290130031067
:10028600F00DF10DFF3E031D42290130F400740804
:10029600F507F11F4F295029412971087302031DE3
:1002A600562970087202031C59295A2960297008B8
:1002B600F2027108031CF303F30201300310F10C80
:1002C600F00CFF3E031D61290130F502031D6C2968
:1002D6006D2950297308F1007208F0000800F50135
:1002E600F60170087104031979297A29B129F701F1
:1002F600F70A882901300310F00DF10DFF3E031DAA
:100306007E290130F4007408F707F11F8B298C2928
:100316007D2901300310F50DF60DFF3E031D8D29D5
:1003260071087302031D992970087202031C9C2927
:100336009D29A4297008F2027108031CF303F30235
:10034600751401300310F10CF00CFF3E031DA529B6
:100356000130F702031DB029B1298C297608F10076
:100366007508F00008000030FC000030FB0000308B
:10037600FA000030F900701CC129C229D929740875
:10038600F907750803110318013E0319CB29FA076B
:10039600760803110318013E0319D229FB077708D3
:1003A60003110318013E0319D929FC070130F8008F
:1003B6000310F40DF50DF60DF70DF80BDB290130E2
:1003C6000310F30CF20CF10CF00CFF3E031DE329B5
:1003D6007308720471047004031DF229F329BE29FF
:1003E6007C08F3007B08F2007A08F1007908F00037
:1003F600080083120313B9002F08B300B401B50136
:10040600B6013608A3003508A2003408A100330857
:10041600A00030083102F0003208031C3203F1005C
:10042600F201F3012E083902F400F501031CF5036D
:10043600F601F51BF6037608F7000A128A11B621B3
:100446000A128A11730883120313A7007208A60002
:100456007108A5007008A4000A128A117A240A12EB
:100466008A118312031330082007B70000300318DF
:1004760001302107B8003808AF003708AE00080081
:10048600F0007008031D482A492A4B2A3030922A68
:100496007003031D4F2A502A522A3130922A023005
:1004A6007006031D572A582A5A2A3230922A0330D8
:1004B6007006031D5F2A602A622A3330922A0430AE
:1004C6007006031D672A682A6A2A3430922A053084
:1004D6007006031D6F2A702A722A3530922A06305A
:1004E6007006031D772A782A7A2A3630922A073030
:1004F6007006031D7F2A802A822A3730922A083006
:100506007006031D872A882A8A2A3830922A0930DB
:100516007006031D8F2A902A922A3930922A0800E3
:1005260000300A128A119D200A128A111A30F4002C
:10053600F830F300F30B9D2AF40B9D2A00003030AF
:100546000A128A119D200A128A110730F4007D30A2
:10055600F300F30BAC2AF40BAC2A30300A128A11E2
:100566009D200A128A110D30F400FB30F300F30BC4
:10057600BA2AF40BBA2ABF2A30300A128A119D20F1
:100586000A128A11C730F300C82AF30BC72ACB2AEE
:10059600CC2A38300A128A119D200A128A110C3090
:1005A6000A128A119D200A128A1101300A128A1132
:1005B6009D200A128A1106300A128A119D200A12FB
:1005C6008A110800F601F31FE92AEA2AF12AF2093C
:1005D600F309F20A0319F30AF601F60AF11FF42ADF
:1005E600F52AFA2AF009F109F00A0319F10A700846
:1005F60071040319FF2A002B2F2BF501F50A0E2B88
:1006060001300310F00DF10DFF3E031D042B0130E8
:10061600F4007408F507F11F112B122B032B710838
:100626007302031D182B70087202031C1B2B1C2B54
:10063600222B7008F2027108031CF303F302013047
:100646000310F10CF00CFF3E031D232B0130F502C5
:10065600031D2E2B2F2B122B76080319332B342B2D
:10066600392BF209F309F20A0319F30A7308F100A8
:100676007208F00008006430F0000030F1007D08D8
:10068600F3007C08F2000A128A1172210A128A11FA
:10069600700883120313A2006430F0000030F100EA
:1006A6007D08F3007C08F2000A128A1138210A122A
:1006B6008A11700883120313A4000A30F000003078
:1006C600F1002408A000A1012008F2002108F3008F
:1006D6000A128A11E5220A128A117008831203137C
:1006E600A30002307A067B04031D7A2B7B2B7D2B1D
:1006F60022089C2B7A037B04031D822B832B952BCC
:100706000A30F0000030F1002408A000A101200802
:10071600F2002108F3000A128A119D230A128A1197
:1007260070089C2B7A087B04031D9A2B9B2B9C2B11
:1007360023080800F601F11FA12BA22BA92BF00913
:10074600F109F00A0319F10AF601F60AF31FAC2BB8
:10075600AD2BB62BF209F309F20A0319F30A01309D
:10076600F4007408F606F701F8017008710403191D
:10077600BD2BBE2BF52BF501F50ACC2B0130031052
:10078600F00DF10DFF3E031DC22B0130F40074087D
:10079600F507F11FCF2BD02BC12B01300310F70D1E
:1007A600F80DFF3E031DD12B71087302031DDD2BCF
:1007B60070087202031CE02BE12BE82B7008F20292
:1007C6007108031CF303F302771401300310F10CD4
:1007D600F00CFF3E031DE92B0130F502031DF42B3F
:1007E600F52BD02B76080319F92BFA2BFF2BF709DB
:1007F600F809F70A0319F80A7808F1007708F000F3
:1008060008000310720D730DF9007908031D0C2CF6
:100816000D2C162C0030F3000030F2000030F100F1
:100826000030F000792C7008F4007108F5007208A9
:10083600F6007308F7001F300310F70CF60CF50CE2
:10084600F40CFF3E031D1F2C7408F800F217FF304E
:10085600F005FF30F105FF30F2050030F305963064
:10086600F902F91F372C382C522C7908803A973E1A
:1008760003183E2C3F2C402C0D2C01300310F30C9A
:10088600F20CF10CF00CFF3E031D412C0130F4007C
:100896007408F907031D502C512C402C692C20306C
:1008A6007902031C572C582C642C0D2C0130F400B3
:1008B6000310F00DF10DF20DF30DF40B5B2C01306E
:1008C600F9027908031D682C692C592C780803193C
:1008D6006D2C6E2C792CF009F109F209F309F00A56
:1008E6000319F10A0319F20A0319F30A080083121D
:1008F6000313A901A31F802C812C8E2CA009A1090A
:10090600A209A309A00A0319A10A0319A20A031935
:10091600A30AA901A90AA71F912C922CA12CA4090C
:10092600A509A609A709A40A0319A50A0319A60A6F
:100936000319A70A0130FD007D08A9060030AD00A5
:100946000030AC000030AB000030AA0023082204BF
:10095600210420040319B02CB12CFE2CA801A80AEE
:10096600C12C0130FD000310A00DA10DA20DA30D99
:10097600FD0BB62C0130FD007D08A807A31FC42C73
:10098600C52CB42C0130FD000310AA0DAB0DAC0D27
:10099600AD0DFD0BC72C23082702031DDC2C2208F6
:1009A6002602031DDC2C21082502031DDC2C200851
:1009B6002402031CDF2CE02CEF2C2008A4022108C3
:1009C600031C210FA5022208031C220FA6022308DE
:1009D600031C230FA7022A1401300310A30CA20C38
:1009E600A10CA00CFF3E031DF02C0130A802031D34
:1009F600FD2CFE2CC52C29080319022D032D0E2DC6
:100A0600AA09AB09AC09AD09AA0A0319AB0A03196D
:100A1600AC0A0319AD0A2D08A3002C08A2002B0866
:100A2600A1002A08A000080083120313C20042088E
:100A360003191E2D1F2D332DBD1F222D232D332DC2
:100A46003A09C4003B09C5003C09C6003D09C70078
:100A5600C40A0319C50A0319C60A0319C70A3B2D96
:100A66003D08C7003C08C6003B08C5003A08C4005C
:100A76003D083C043B043A04031D422D432D4C2DF6
:100A86000030BD000030BC000030BB000030BA00B2
:100A9600D02D9630C3005C2D0130BE003E08C30742
:100AA60001300310C70CC60CC50CC40CFF3E031D59
:100AB600542DFE304705031D612D622D4F2D7E2DD1
:100AC6000130BE003E08C3070130C40700300318DA
:100AD6000130C507003003180130C607003003187F
:100AE6000130C70701300310C70CC60CC50CC40C77
:100AF600FF3E031D762DFF304705031D832D842DF4
:100B0600632D902D0130C3020130BE000310C40DC9
:100B1600C50DC60DC70DBE0B892DC61B932D942D75
:100B26009A2D023043020318992D9A2D852D4318CC
:100B36009D2D9E2DA62DFF30C405FF30C5057F30A7
:100B4600C605FF30C7050310C30C4308BE00BF012E
:100B5600C001C10118300310BE0DBF0DC00DC10D7F
:100B6600FF3E031DAE2D3E08C4043F08C5044008E1
:100B7600C6044108C70442080319C22DC32DC82D57
:100B8600BD1FC62DC72DC82DC7174708BD0046086F
:100B9600BC004508BB004408BA00080083160313CE
:100BA60088010A128A1193220A128A110A128A11DC
:100BB60081200A128A110A128A1109210A128A113F
:100BC6000230F30001300A128A11C7200A128A1174
:100BD60001300A128A11E7200A128A110D30831297
:100BE6000313C900FB30C800C80BF72DC90BF72D3E
:100BF60083120313071101300A128A116B200A129D
:100C06008A1183160313141C092E0A2E042E0A12A7
:100C16008A1178200A128A1183120313D900071544
:100C2600F430B1000130B200B001FF30AF00AE01C8
:100C360059080A128A11FC210A128A118312031317
:100C46002E08C8002F08C900CA01CB014B08BD00F9
:100C56004A08BC004908BB004808BA0000300A121E
:100C66008A1117250A128A11831203133D08CF0031
:100C76003C08CE003B08CD003A08CC000230FA0012
:100C86000030FB004F08F3004E08F2004D08F1005B
:100C96004C08F0000A128A1104240A128A117108FB
:100CA600FD007008FC000A128A113E230A128A11FE
:100CB6000A128A1143220A128A1183120313D800D8
:100CC600F301F30A02300A128A11C7200A128A11A6
:100CD6008312031358080A128A118E200A128A11E7
:100CE6000230F30002300A128A11C7200A128A1152
:100CF6000D300A128A11E7200A128A110130FA0011
:100D06000030FB00831203134F08F3004E08F20075
:100D16004D08F1004C08F0000A128A1104240A1248
:100D26008A117108FD007008FC000A128A113E2320
:100D36000A128A110A128A1143220A128A1183128E
:100D46000313D7000330F30002300A128A11C720BA
:100D56000A128A118312031357080A128A118E2067
:100D66000A128A110030FA00FB00831203134F089F
:100D7600F3004E08F2004D08F1004C08F0000A128C
:100D86008A1104240A128A117108FD007008FC00F9
:100D96000A128A113E230A128A110A128A11432262
:100DA6000A128A1183120313D6000430F3000230AC
:100DB6000A128A11C7200A128A11831203135608CF
:100DC6000A128A118E200A128A110D308312031319
:100DD600C900FB30C800C80BEE2EC90BEE2E8312DD
:100DE6000313071301300A128A116B200A128A11A3
:100DF60083160313141C002F012FFB2E0A128A11CF
:100E060078200A128A1183120313D9000717F430C7
:100E1600B1000130B200B001FF30AF00AE01590899
:100E26000A128A11FC210A128A11831203132E0850
:100E3600C8002F08C900CA01CB014B08BD004A08EB
:100E4600BC004908BB004808BA0000300A128A11E3
:100E560017250A128A11831203133D08CF003C0896
:100E6600CE003B08CD003A08CC000230FA00003034
:100E7600FB004F08F3004E08F2004D08F1004C0845
:100E8600F0000A128A1104240A128A117108FD0060
:100E96007008FC000A128A113E230A128A110A12ED
:100EA6008A1143220A128A1183120313D8000630CC
:100EB600F30002300A128A11C7200A128A1183121D
:100EC600031358080A128A118E200A128A11073053
:100ED600F30002300A128A11C7200A128A110D3055
:100EE6000A128A11E7200A128A110130FA0000302C
:100EF600FB00831203134F08F3004E08F2004D085F
:100F0600F1004C08F0000A128A1104240A128A1110
:100F16007108FD007008FC000A128A113E230A12AD
:100F26008A110A128A1143220A128A1183120313A2
:100F3600D7000830F30002300A128A11C7200A12BD
:100F46008A118312031357080A128A118E200A1275
:100F56008A110030FA00FB00831203134F08F300D6
:100F66004E08F2004D08F1004C08F0000A128A11F2
:100F760004240A128A117108FD007008FC000A1286
:100F86008A113E230A128A110A128A1143220A1270
:100F96008A1183120313D6000930F30002300A12B5
:100FA6008A11C7200A128A118312031356080A12DD
:100FB6008A118E200A128A110D3083120313C9007A
:100FC600FB30C800C80BE52FC90BE52F0A128A11A2
:100FD600002883120313CC01CD01CE01CF01D0012D
:100FE600D101D201D301D401D501D601D701D8014F
:0A0FF600D90183010A128A11D12DDE
:08400000FF3FFF3FFF3FFF3FC0
:04400E00D420FF3F7C
:00000001FF
