:060000000A128A110C280F
:10000800FE00030EF1000A08F2000A128A1199286C
:100018000A128A110F28F901FA0183010A128A11BA
:100028005D28F400831203138501831603138501E9
:100038008316031708088800080801388800831207
:1000480003139F131F17831603139F121F129F1367
:100058007408F300F30DF30D831203131F087306DE
:10006800C33973069F001F142130F300F30B3A289D
:100078000800831603178801890183160313860174
:10008800880183120313860188018B170B178C11C3
:10009800831603138C158516831203138512F30137
:1000A800F401F50124300A128A11B5200A128A11C6
:1000B80008000A128A113D200A128A1100300A1219
:1000C8008A117C200A128A117508FA000D308312F1
:1000D8000313A400FB30A300A30B7028A40B702803
:1000E8007A0883120313880062280A128A110C28DE
:1000F80083120313A20022080A128A1115200A1279
:100108008A11831203139F149F188B288C28882820
:100118000C131E08F700F8017708A0007808A10062
:100128002108F6002008F5000800831203138C1D2F
:100138009E289F28AE280A128A11CB200A128A11FB
:10014800F9007A080A128A11DB200A128A1183122E
:1001580003138C1172088A00710E8300FE0E7E0E46
:100168000900F600831603138712761DBC28BD28E4
:10017800C128750894008715C5287308750494006C
:1001880087117608740483120313940008000A1276
:100198008A11D4200A128A11831203131308080043
:1001A80083160313141CD928DA28D4280800F00071
:0A01B800700883120313930008007F
:08400000FF3FFF3FFF3FFF3FC0
:04400E00D420FF3F7C
:00000001FF
